0088999999949101950123114005+42550-092400SAO  +026599999V02015859008850609649N012800599-00504-00785999999EQDN01 00000JPWTH 1QNNG11 1 00200K11 1 00018L11 1 00800N11 1 00000S11 1 00023W11 1 54017
0088999999949101950123115005+42550-092400SAO  +026599999V02015859008850609649N012800599-00334-00565999999EQDN01 00000JPWTH 1QNNG11 1 00200K11 1 00022L11 1 00800N11 1 00000S11 1 00026W11 1 54017
0088999999949101950123116005+42550-092400SAO  +026599999V02015859010850609649N012800599-00334-00505999999EQDN01 00000JPWTH 1QNNG11 1 00200K11 1 00023L11 1 00800N11 1 00000S11 1 00026W11 1 54021
0088999999949101950123117005+42550-092400SAO  +026599999V02015859008850609649N012800599-00334-00505999999EQDN01 00000JPWTH 1QNNG11 1 00200K11 1 00023L11 1 00800N11 1 00000S11 1 00026W11 1 54017
0088999999949101950123118005+42550-092400SAO  +026599999V02015859011350609649N012800599+00004-00335999999EQDN01 00000JPWTH 1QNNG11 1 00200K11 1 00026L11 1 00800N11 1 00000S11 1 00032W11 1 54022
0088999999949101950123119005+42550-092400SAO  +026599999V02015859013450304849N016000599+00174-00285999999EQDN01 00000JPWTH 1QNNG11 1 00100K11 1 00027L11 1 01000N11 1 00000S11 1 00035W11 1 54026
0088999999949101950123120005+42550-092400SAO  +026599999V02013559011850304849N016000599+00174-00285999999EQDN01 00000JPWTH 1QNNG11 1 00100K11 1 00027L11 1 01000N11 1 00000S11 1 00035W11 1 44023
0088999999949101950123121005+42550-092400SAO  +026599999V02013559012450304849N016000599+00224-00285999999EQDN01 00000JPWTH 1QNNG11 1 00100K11 1 00027L11 1 01000N11 1 00000S11 1 00036W11 1 44024
0088999999949101950123122005+42550-092400SAO  +026599999V02013559014450304849N016000599+00284-00285999999EQDN01 00000JPWTH 1QNNG11 1 00100K11 1 00027L11 1 01000N11 1 00000S11 1 00037W11 1 44028
0088999999949101950123123005+42550-092400SAO  +026599999V02013559011350304849N016000599+00174-00285999999EQDN01 00000JPWTH 1QNNG11 1 00100K11 1 00027L11 1 01000N11 1 00000S11 1 00035W11 1 44022